:1000000033C000004DC000004BC0000049C00000DC
:1000100047C0000045C0000043C0000041C00000D0
:100020003FC000003DC000003BC0000039C00000E0
:1000300037C0000035C0000033C0000031C00000F0
:100040002FC000002DC000002BC0000029C0000000
:1000500027C0000025C0000023C0000021C0000010
:100060001FC000001DC0000011241FBECFEFD8E04C
:10007000DEBFCDBF12E0A0E0B1E0E4E1F6E202C0F5
:1000800005900D92A230B107D9F722E0A2E0B2E0CC
:1000900001C01D92A630B207E1F793D20C94E7128B
:1000A000AFCF609302027093030280930402909397
:1000B0000502089544E062E180E037D18FE99FE0D6
:1000C0000197F1F700C0000040E962E180E02DD126
:1000D0008FE99FE00197F1F700C000004091020214
:1000E0006FE080E022D141E062E180E050D14FEF4B
:1000F0006BE180E01AD14FEF6CE180E016D14FEF59
:100100006DE180E012D142E061E480E00ED143E095
:1001100062E480E00AD188EB98E848D17F3FD9F7C4
:100120000895CF92DF92EF92FF920F931F93CF9398
:10013000DF9300D000D0CDB7DEB780E091E09F9391
:100140008F930E94680F40E069E080E0EED087E87E
:1001500093E10197F1F700C0000041E069E080E021
:10016000E4D00F900F9010E0CE0101967C0168EB77
:1001700078E8C7010E948A0FC12ECC0CCC0CDE2C73
:100180000F2D8D2D902F0E94940F8115C9F001E045
:10019000111101C000E040E069E0802FC6D042E0CC
:1001A00062E1802FF4D01F921F9386E291E09F932B
:1001B0008F930E94680F0F900F900F900F9022C0A6
:1001C000409102024C1963E180E0AFD088EE93E0E9
:1001D000EDD06111D6CF7831A1F681E0111101C0C7
:1001E00080E041E269E0A1D0812F23D140E162E1CA
:1001F00081E09BD041E069E081E097D01F5F103142
:1002000009F0B5CF412F6EE080E08FD042E061E190
:1002100080E08BD040E460E180E087D0E12CF12CDD
:100220008DE4C82E81E0D82E0FEF010FE11680F08B
:1002300041E062E180E00F900F900F900F90DF910E
:10024000CF911F910F91FF90EF90DF90CF909FC0C3
:100250008E2DEFD083EC99E00197F1F700C00000FC
:10026000FF92EF92DF92CF920E94680F41E167E424
:1002700081E05BD040E16DE581E057D040E06BE08C
:1002800081E053D041E06CE081E04FD0402F4E1927
:100290006EE081E04AD040E06DE081E046D09FEF23
:1002A000E91AF90A0F900F900F900F90BFCF80E6D8
:1002B000C82ED12CE12CF12C0CE611E0C4E8D1E0E1
:1002C00088EE93E073D06111FBCF1F929F931F9232
:1002D0008F931F927F931F930F930E94680F87E85D
:1002E00093E10197F1F700C000009FEFC91AD90A06
:1002F000E90AF90AFF92EF92DF92CF92DF93CF9350
:100300000E94680FC0920202D0920302E09204029F
:10031000F0920502CFDE05DF8DB79EB70E960FB6C1
:10032000F8949EBF0FBE8DBFCBCFCF93DF9300D08D
:10033000CDB7DEB769834A8321E042E0BE016F5F3B
:100340007F4F825995D00F900F90DF91CF910895F4
:100350001F93CF93DF930F92CDB7DEB71EE6180F32
:10036000698321E041E0BE016F5F7F4F812F80D024
:1003700085E5898321E041E0BE016F5F7F4F812FDA
:10038000BBD089810F90DF91CF911F9108951F936A
:10039000CF93DF93C82FD62F142FDADF482F412BAE
:1003A0006D2F8C2FDF91CF911F91BFCFBF92CF9236
:1003B000DF92EF92FF920F931F93CF93DF9300D0C2
:1003C00000D0CDB7DEB77C01BC01CE0101966C0137
:1003D0000E948A0F65E180E0BBDF811579F067E15B
:1003E00080E0B6DF082F66E180E0B2DFB82EBB1CEC
:1003F000BB24BB1C182F1F7060E004C0E114F10483
:1004000091F461E0702F8B2D912F0F900F900F9032
:100410000F90DF91CF911F910F91FF90EF90DF90A0
:10042000CF90BF900895C6010E94940F811591F25C
:10043000E8CF482F61E080E078CF8091BC0087FD55
:100440000895FBCF84ED8093BC008091B90008959E
:1004500082E08093B9008CE08093B800ECEBF0E090
:1004600080818460808380818068808380E00895BB
:10047000CF92DF92FF920F931F93CF93DF93082FBA
:10048000EB01142FF22E84EE8093BC00D6DF809116
:10049000B900887F883011F0803129F5000F009372
:1004A000BB0084EC8093BC00C8DF8091B900887FDA
:1004B000803411F08831B1F46E01C10ED11C04EC0E
:1004C000CC15DD0521F4F110BDDF812F0DC0899120
:1004D0008093BB000093BC00B0DF8091B900887F9F
:1004E000883271F3AFDF8FEFDF91CF911F910F91C2
:1004F000FF90DF90CF9008958F929F92AF92BF921E
:10050000CF92DF92EF92FF920F931F93CF93DF93DF
:10051000D82F162F072FC42FD22E84EE8093BC0025
:100520008CDF8091B900887F883081F0803171F054
:100530008FEFDF91CF911F910F91FF90EF90DF90A0
:10054000CF90BF90AF909F908F900895DD0FD160B6
:10055000D093BB0084EC8093BC006FDF8091B90026
:10056000887F8034A1F4E12EF02E8C2E912C00E0B7
:1005700010E0540181E0A81AB108D4E884ECC82E38
:100580000815190539F4D1105DDF8C2FD2CF8831D1
:1005900051F3CECFA016B10689F0C092BC004DDF5A
:1005A0008091BB00F70181937F018091B9000F5FBB
:1005B0001F4F847F803509F0BBCFE2CFD093BC00C2
:1005C000EECF0E94A50F82EA91E09F938F930E9445
:1005D000680F0E94820F60EA76E881E090E038DFE1
:1005E00080EB91E09F938F930E94680F6CE670E020
:1005F00080E090E056DD5EDD94DD59DE0F900F90D7
:100600000F900F9080E090E0089508952F923F9210
:100610004F925F926F927F928F929F92AF92BF9212
:10062000CF92DF92EF92FF920F931F93CF93DF93BE
:1006300000D000D000D0CDB7DEB72C0169837A831B
:100640004A012B833C83380187017601C5011501DE
:1006500022E02222332483709927892B09F454C085
:100660005E834D836301C00ED11E4D815E816C148B
:100670007D0409F04FC08D819E81800F911F9C01E8
:1006800028193909232809F060C00F900F900F90A6
:100690000F900F900F90DF91CF911F910F91FF90CE
:1006A000EF90DF90CF90BF90AF909F908F907F9012
:1006B0006F905F904F903F902F9008956A013FEFA9
:1006C000C31AD30A2B813C8169817A8180E2F201CD
:1006D00009952D813E812F5F3F4F3E832D83A601DB
:1006E0008D819E818E159F0548F3E016F10678F006
:1006F000F701E01BF10BFE83ED832D813E81280D78
:10070000391D3E832D83AECF1E830D83E9CF1E821C
:100710001D82F3CF5A013FEFA31AB30A2B813C810C
:1007200069817A81F60182916F01F2010995A50133
:100730009ECF2B813C81AC0169817A8180E2F201FC
:1007400009952D813E812F5F3F4F3E832D838D8103
:100750009E81880D991DED81FE81EE15FF0548F300
:1007600094CF2F923F924F925F926F927F928F928F
:100770009F92AF92BF92CF92DF92EF92FF920F9330
:100780001F93CF93DF9300D0CDB7DEB71C012B01B1
:100790003A01A801C701FC2CB50189829A82CF8851
:1007A000D88CA98CBA8CA1FC26C0D501A170BB271E
:1007B000C114D10461F0109751F0F11005C085010A
:1007C0000C701127012B19F011E0C11AD108E0E3D8
:1007D000EE2E09C08032910559F08A01080F191FC9
:1007E000F801E0820196E981FA818E179F0790F364
:1007F00010E3AB2BF9F4A4FE3EC0B2FC24C000977A
:1008000011F1E981FA818E179F0719F08C159D056A
:10081000D1F4FC013197A9F0029760317105B9F06C
:10082000CF016230710509F55DC0DA01A80FB91F6B
:100830001C9301968C159D05F0F680329105A9F761
:10084000DACF80E090E06031710509F045C0A5FC89
:100850001EC080329105F1F0FA01E80FF91F68E738
:100860006083019680329105A9F0FA01E80FF91F23
:1008700060E3608301968032910561F0F114B9F173
:10088000FA01E80FF91F6DE26083019605C080321E
:100890009105E9F480E290E07C018A01A301B201B4
:1008A000C101B4DE0F900F90DF91CF911F910F9196
:1008B000FF90EF90DF90CF90BF90AF909F908F9080
:1008C0007F906F905F904F903F902F900895FA0126
:1008D000E80FF91F68E5C4CF6230710519F6803260
:1008E0009105C1F2FA01E80FF91F62E6B9CFA2FE45
:1008F00005C0FA01E80FF91F6BE2C6CFA3FECCCF0B
:10090000FA01E80FF91F60E2BFCF2F923F924F929A
:100910005F926F927F928F929F92AF92BF92CF928F
:10092000DF92EF92FF920F931F93CF93DF93CDB798
:10093000DEB7AA970FB6F894DEBF0FBECDBF8CA36B
:100940009DA36EA37FA3242E58A729A73AA727010A
:100950003801CBA29A2D8B2D5401C92ED82E229668
:100960009FAC229723968FAC239725960EAD1FAD93
:100970002597411451046104710409F40F7E12FF9C
:1009800007C0E12CF12C411451046104710481F180
:10099000C80125E0969587952A95E1F78170811524
:1009A00009F458C081E49E012F5F3F4F3AA329A369
:1009B000E12CF12C96EF392E380EC301B201A601BD
:1009C00095010E94D70F6A3008F049C0605D8FEF33
:1009D000E81AF80AE9A1FAA16193FAA3E9A34A1473
:1009E0005B046C047D0420F0F0E2EF16F104A1F545
:1009F0001F930F938F929F9221968EAC9FAC21975D
:100A0000CBA08E010F5F1F4F29A53AA5422D58A5F7
:100A10006EA17FA18CA19DA1A4DE0F900F900F90DD
:100A20000F90AA960FB6F894DEBF0FBECDBFDF9130
:100A3000CF911F910F91FF90EF90DF90CF90BF90DB
:100A4000AF909F908F907F906F905F904F903F906E
:100A50002F90089581E6A7CF29013A01AECF630D0B
:100A6000B6CF2F923F924F925F926F927F928F926A
:100A70009F92AF92BF92CF92DF92EF92FF920F932D
:100A80001F93CF93DF93CDB7DEB76E970FB6F89471
:100A9000DEBF0FBECDBF8B879C876D8B7E8B4D8756
:100AA0005E872F8B388FC701D8018F839887A987DE
:100AB000BA87AF86B88A8D829E822F813885498514
:100AC0005A85CA01B9010E943111811118C02FEF56
:100AD0003FEF4FE75FE76F81788589859A850E94B0
:100AE0008012181664F02FEF3FEF4FE75FEF6F8132
:100AF000788589859A850E94311187FF2CC08D8069
:100B00009E80AF84B888EF80F88409851A852F8984
:100B1000388D4D855E856D897E898B859C8538D223
:100B2000AC01CA016E960FB6F894DEBF0FBECDBF02
:100B3000DF91CF911F910F91FF90EF90DF90CF90B9
:100B4000BF90AF909F908F907F906F905F904F90ED
:100B50003F902F90089520E030E0A9016F817885C3
:100B600089859A850E94311187FFFDC18F81988503
:100B7000A985BA85B05889839A83AB83BC83AD813C
:100B8000BE81AA27B470BA8FA98FAB2B19F436E0B7
:100B9000C32ED12C29813A814B815C8160E070E0C9
:100BA00080E090E004E30E948810B90177706F5FE5
:100BB0007340072E000C880B990B0E94D0112BE973
:100BC00030E24AE95EE30E94841224E431E544E322
:100BD0005EE30E94CD107B018C0120E030E040EC10
:100BE0005FE3B981AA81FB81EC816B2F7A2F8F2F74
:100BF0009E2F0E94CC102BE33DE344E95EE30E946C
:100C000084129B01AC01B701C8010E94CD100E9463
:100C10009D114B012B01072E000C880B990B0E9494
:100C2000D0117B018C0128E73AE944E550E40E94A9
:100C3000841220E030E040E05FE30E94CD100E948B
:100C40009D11698B7A8B8B8B9C8B2EE83DE543E164
:100C500050E4B701C8010E9484127B018C01E9892C
:100C6000FA89BF01FF0F880B990B0E94D01128E170
:100C700032E741E35FE30E9484129B01AC01B701BC
:100C8000C8010E94CC107B013C019B01AC010E9479
:100C900084128B011C019701A301B701C3010E94BB
:100CA000CD106B8F7C8F8D8F9E8F20E030E040E6E3
:100CB00051E4B801C1010E94351120E030E040E26A
:100CC00051E40E94CD109B01AC01B801C1010E940A
:100CD000351120E030E040EC50E40E94CD109B0143
:100CE000AC01B801C1010E9435111B018C019701B3
:100CF000A30160E070E080E090E40E94CC109B01D2
:100D0000AC01B101C8010E94CD109B01AC016B8DFB
:100D10007C8D8D8D9E8D0E94351120E030E040E865
:100D20005FE30E94CD10B62FA72FF82FE92F8989F6
:100D30009A8981509C4F192F110F110B9C01412F43
:100D4000512F612F712F812F912F04E30E946D107D
:100D50006B2F7A2F8F2F9E2F0E9484127B018C0184
:100D600029813A814B815C817F2D802F912F0E94B8
:100D70008012181684F4940121503109290120E0D1
:100D800030E040E251E46E2D7F2D802F912F0E94A4
:100D900035117B018C01C2018D599F4F24E0622ED9
:100DA000712C873C910518F095E0692E712C8D818E
:100DB0009E8193FF2AC027E137EB41ED58E369811B
:100DC0007A818B819C810E94801287FDD4C020E0B3
:100DD00034E244E759E469817A818B819C810E94E5
:100DE000311187FFC8C04C145D040CF0C1C0C41899
:100DF000D50891E0C91AD108AD81BE81B460BE8327
:100E0000AD83612C712C412C512C2F8538895901CF
:100E1000A618B7086216730610F0A12CB12C2D800D
:100E20003E8032E0232233242114310429F061145E
:100E3000710411F0A12CB12C4114510489F02E2D14
:100E40003F2D402F512F69817A818B819C810E9497
:100E50003511462F572FBC0149835A836B837C83FE
:100E60008D809E80E89493F820E030E0A9016F81A6
:100E7000788589859A850E94311187FF09C089810B
:100E80009A81AB81BC81B05889839A83AB83BC8340
:100E9000E980FA800B811C812F89388D4D855E8514
:100EA0006D897E898B859C8573D0AC01611471043A
:100EB00009F437CEDC011196BA83A983BD8185E49C
:100EC000B5FF85E62F89388D6D897E89EB85FC8598
:100ED0000995C52CCC1CCC24CC1C720157FE03C038
:100EE000F194E194F1080F2C000C000B110B1F92F0
:100EF00085E08F93F1E06F1A71087F926F921F92D5
:100F00001F928AE0882E912CA12CB12C2F89388D2C
:100F100049815A816D897E898B859C85F6DCAC017F
:100F20000F900F900F900F900F900F90232809F4BF
:100F3000F8CD8C012D853E85021B130B4D855E85FA
:100F4000400F511F2F8538890217130708F0E9CD8C
:100F50002F89388D6D897E8980E2EB85FC85099526
:100F60000F5F1F4FEBCF8F819885A985BA8503CE80
:100F7000C12CD12C41CFC114D10409F446CFE98D45
:100F8000FA8DEF2B09F441CFF1E0CF1AD1083DCF14
:100F90002F923F924F925F926F927F928F929F9289
:100FA000AF92BF92CF92DF92EF92FF920F931F9377
:100FB000CF93DF93CDB7DEB7E7970FB6F894DEBFD8
:100FC0000FBECDBF8FA398A769A77AA74BA75CA731
:100FD0002DA73EA7270138011601A9A2BAA25401E4
:100FE0009701A801B701C8010E943111811589F04C
:100FF000C9A0DAA043E0E42EF12C01ED11E02DA50B
:101000003EA54BA55CA569A57AA58FA198A5FEDA9A
:101010004DC02FEF3FEF4FE75FEFB701C8010E94D0
:10102000311187FF08C0C9A0DAA034E0E32EF12C0B
:1010300005ED11E0E4CF2FEF3FEF4FE75FE7B7019A
:10104000C8010E948012181674F484E090E008EC45
:1010500011E082FC04C083E090E00DEC11E0C9A037
:10106000DAA07C01CCCF28E23BE64EE65EE4B70195
:10107000C8010E948012181654F028E23BE64EE6A2
:101080005EECB701C8010E94311187FF28C04501FD
:10109000A9A0BAA06101720183012DA53EA54BA5AF
:1010A0005CA569A57AA58FA198A5DBDCE7960FB6AC
:1010B000F894DEBF0FBECDBFDF91CF911F910F918E
:1010C000FF90EF90DF90CF90BF90AF909F908F9068
:1010D0007F906F905F904F903F902F90089520E009
:1010E00030E0A901B701C8010E94311187FFD9C0C2
:1010F0009701A80160E070E0CB010E94CC102B01A9
:101100003C0121E02BAB850100271470011511056E
:1011100009F4C9C000E010E03AE02316310490F071
:10112000FE01319600E010E080E30F5F1F4F8193D6
:1011300091E0291A31080032110521F0A9E02A16A0
:10114000310499F7B201C3010E949D116BA37CA3E6
:101150008DA39EA38BA09CA0F101EE0FFF1FEE0FAD
:10116000FF1FE652FE4F80819181A281B3818CAB3B
:101170009DABAEABBFABB401092C000C880B990B37
:101180000E94D0119B01AC01B201C3010E94CC109E
:101190002CA93DA94EA95FA90E9484126FA778AB24
:1011A00089AB9AAB0E94A2116B017C01C701B60109
:1011B0000E94CE119B01AC016FA578A989A99AA9BB
:1011C000EBD76FA778AB89AB9AAB20E030E040E07B
:1011D0005FE30E94801218160CF069C0BFEFCB1AB3
:1011E000DB0AEB0AFB0AC701B6010E94CE119B0184
:1011F000AC016CA97DA98EA99FA90E943111181676
:1012000034F0F40131964F01C12CD12C7601211418
:10121000310409F064C0B401092C000C880B990B4F
:101220000E94D0119B01AC01B201C301B5D720E0EF
:1012300030E040E05FE30E94311187FD05C080FE91
:1012400003C02FEF821A920AE1E0F0E0EC0FFD1FDD
:10125000E00FF11F2AE030E00032110551F0C40127
:10126000B90192D60F5F1F4F805D81934B01672BB1
:1012700099F7A1FC90C0A0FE8EC029A13AA1232B12
:1012800009F489C03BA9311105C0C5018C709927AB
:10129000892B29F089A19AA101979AA389A380E3B8
:1012A0006BC01BAA30CF26E0222E312C4BCF20E082
:1012B00030E040E05FE36FA578A989A99AA9D1D76A
:1012C00087FDA5CFC114D104E104F10411F0C0FEE3
:1012D0009ECFFFEFCF1ADF0AEF0AFF0A98CFE1E0B7
:1012E000F0E0EC0FFD1FE00FF11FFCA3EBA38AE081
:1012F000482E512C612C712C00321105B1F031E0D7
:10130000231A3108C701B601A301920150D60F5F1D
:101310001F4F605DABA1BCA16D93BCA3ABA3BAE0B2
:10132000CB16D104E104F104C0F4C801820D931D71
:1013300040E30032110509F487CF98012F5F3F4F3A
:10134000E1E0F0E0EC0FFD1FE00FF11F08171907B7
:1013500039F48EE28083890177CF69017A01CCCF9D
:1013600040838901E6CFE1E0F0E0EC0FFD1FE00FE4
:10137000F11F80830F5F1F4FA9A1BAA10A171B0796
:1013800050F40032110579F7C9A0DAA078018E0176
:101390000F5F1F4F34CE00321105B1F3BBA9B11559
:1013A00059F0E1E0F0E0EC0FFD1FE00FF11F8DE2DE
:1013B00080830F5F1F4FE8CFA2FE08C0E1E0F0E09E
:1013C000EC0FFD1FE00FF11F8BE2F2CFA3FEDCCF8D
:1013D000E1E0F0E0EC0FFD1FE00FF11F80E2E8CF4D
:1013E0008111D1C508952F923F924F925F926F92D3
:1013F0007F928F929F92AF92BF92CF92DF92EF92A5
:10140000FF920F931F93CF93DF93CDB7DEB7C754EF
:10141000D1090FB6F894DEBF0FBECDBF89AB9AAB32
:101420006BAB7CAB4FA758AB29A73AA728012BA9D8
:101430003CA9232B21F425E033E03AAB29AB212C46
:10144000312C42C249A55AA54F5F5F4F5AA749A701
:10145000853249F081010F5F1F4F2FA538A9A101E7
:101460006BA97CA9B0C0612C712CE9A5FAA581916A
:101470009F018B32D1F068F48032D1F08332D9F001
:1014800090ED980F9A3008F045C01CA61BA63AE0D4
:1014900024C08D3239F0803399F7689460F8FAA748
:1014A000E9A7E3CF689461F8FACF689462F8F7CFC0
:1014B000689463F8F4CF689464F8F1CF4BA55CA509
:1014C000349FC001359F900D1124C097BC01620F5D
:1014D000711D7CA76BA7FAA7E9A7E9A5FAA5219139
:1014E00080ED820F8A3050F3E9A5FAA580818E3213
:1014F00009F080C0CF010196689472F8218130ED27
:10150000320F3A3008F064C09AA789A71EA61DA61C
:101510003AE028C08A32A1F4F2018191919197FFBB
:101520000CC0689461F8AA27BB27A81BB90BBCA7FD
:10153000ABA729A73AA72F01D7CF9CA78BA7F9CF95
:101540001CA61BA6D1CF4DA55EA5349FC001359F1B
:10155000900D1124C097BC01620F711D7EA76DA76D
:10156000FAA7E9A7E9A5FAA5219180ED820F8A30B3
:1015700050F3E9A5FAA581918C3609F447C008F02B
:1015800041C0883609F453C08A3609F45CC0A9A565
:10159000BAA58D91BAA7A9A7893708F05BCF88357E
:1015A00008F054C0853409F462C008F058C0853290
:1015B00009F050CF81010F5F1F4F2FA538A9A1015E
:1015C0006BA97CA985E2E9A9FAA9099518017CC152
:1015D0002A3299F4F201819191919EA78DA797FFEC
:1015E00002C01EA61DA6A9A5BAA51296BAA7A9A7AC
:1015F0002F01BFCF1DA61EA6BCCF9AA789A71EA6E6
:101600001DA6B7CF8437F9F08A37BFCFA9A5BAA5F1
:1016100011968C918C3629F0689470F8FAA7E9A796
:10162000B6CFB3E07B2AE9A5FAA53296F7CFA9A5F4
:10163000BAA511968C91883619F0689467F8EECFA8
:10164000B0EC6B2AF0CF689471F8E8CFE8EAE80FC5
:10165000E13208F0FFCEF0E0E751FD4ECAC4863417
:1016600009F4D5C2873409F0F5CE689473F868940C
:1016700065F8E9C2883709F41CC4883509F412C436
:101680008F3609F41BC4823609F41DC4E89464F84B
:10169000893609F44AC1843609F44CC1EAE0F0E025
:1016A000F8AFEFABF3EF6F2272FE02C0E89460F880
:1016B000930122273270893619F0843609F0B4C1BB
:1016C000232B09F457C1B201685F7F4F22967FAF89
:1016D0006EAF2297D201AC901196BC9011971296E2
:1016E000CC9012971396DC90139714961C91149734
:1016F0001596BC91F201F6812496FFAF2497F20172
:10170000F781FDAB4FA958AD9A0140E050E060E091
:1017100070E0CB0129A33AA34BA35CA36DA37EA3E6
:101720008FA398A79501A601612F7B2F24968FADDB
:1017300024979F2F0FE3ECD423962FAF2397EA2D06
:101740004B2C5C2C8D2C912EEB2E2496FFAC2497E9
:101750000F2F9501A601612F7B2F8F2D9F2FA0E0CA
:10176000FBD44CF4AAD4E22F432E542E852E962E71
:10177000E72EF82E092FE9AF4AAE5BAEECAEFDAE18
:101780000EAF9501A601612F7B2F24968FAD249774
:101790009DA9A0E0E1D411F4E89464F872FE0EC0B3
:1017A0009501A601612F7B2F24968FAD24979DA9CB
:1017B000A0E0412C512CD0D409F463C0C30145E012
:1017C000969587954A95E1F78170811509F4B7C020
:1017D00081E4BE016F5F7F4F7EAB6DAB412C512C1E
:1017E0008A5028968FAF2897A9A0BAA0CBA0DCA0DA
:1017F000EDA0FEA00FA118A529AD3AAD4BAD582D17
:10180000692D7CAD8DAD9EADFAD32A3008F0ADC008
:10181000205D3FEF431A530AADA9BEA92D93BEAB7D
:10182000ADABA9A0BAA0CBA0DCA0EDA0FEA00FA1FB
:1018300018A529AD3AAD4BAD582D692D7CAD8DADB8
:101840009EADDFD324962FAF2497E32FF42FA52F3F
:10185000B62F25967FAF259726968FAF269727968A
:101860009FAF279729AD3AAD4BAD582D692D7CAD73
:101870008DAD9EAD68D428F020E24216510409F0E7
:1018800060C07F926F923CA53F934BA54F938DA470
:101890009EA4AFA8B8AC2396CFAC239772018E015B
:1018A0000F5F1F4F2FA538A9A1016BA97CA989A99A
:1018B0009AA90E94B1031C010F900F900F900F90F6
:1018C00022964EAC5FAC2297A9A5BAA58C91811146
:1018D000B9CDEFA5F8A9AF01415051092E163F0629
:1018E00008F4A1012FA538A96BA97CA980E0E9A97A
:1018F000FAA90995C101C95BDF4F0FB6F894DEBFA5
:101900000FBECDBFDF91CF911F910F91FF90EF9050
:10191000DF90CF90BF90AF909F908F907F906F900F
:101920005F904F903F902F9008952AE030E038AFBD
:101930002FABBACE4AE050E058AF4FABB5CE81E600
:1019400048CF24967FAD249779AFEAAFFBAF4D0126
:101950002596AFAD2597ACAF2696BFAD2697BDAF08
:101960002796EFAD2797EEAF3FCF2896FFAD28978C
:101970002F0F4FCF6FA978AD4B01A12CB12CD20105
:1019800070FE35C04D915D916D917D912D01DB0112
:10199000CA018827B7FD83959927AA27BB277A0113
:1019A0008B0177FF08C010950095F094E094E11C3E
:1019B000F11C011D111D7F926F92ECA5EF93FBA509
:1019C000FF932EA52F933DA53F93C82E2FA538A991
:1019D000A1016BA97CA989A99AA90E9485041C016F
:1019E0000F900F900F900F900F900F906DCFED9084
:1019F000FD902D0166FCFF24CF2CCC1CCC24CC1CEC
:101A0000F7FE03C0F194E194F1080F2C000C000BD9
:101A1000110B7F926F92BCA5BF93EBA5EF93FEA530
:101A2000FF932DA52F93D2CF6FA978AD232B09F467
:101A3000CFC0AB0160E070E080E090E0DC0149A342
:101A40005AA36BA37CA38DA39EA3AFA3B8A7C20187
:101A5000089622969FAF8EAF2297D201BC91BDAB64
:101A6000F201F181F9AFD2011296BC91BAAFF20145
:101A7000F381FBAFD2011496BC91BCAFF20185801B
:101A80009680F781FDAF2DA939AD4AAD5BAD6B2FC7
:101A9000782D892D9F2FA0E05FD311F4E89464F88E
:101AA00072FE0EC02DA939AD4AAD5BAD6CAD782D7F
:101AB000892D9DADA0E0412C512C4ED309F460C07E
:101AC000C30125E0969587952A95E1F781708115E8
:101AD00009F462C081E49E012F5F3F4F3FAF2EAFFC
:101AE000412C512C8A5027968FAF2797A9A0BAA0D6
:101AF000CBA0DCA0EDA0FEA00FA118A52DA939ADAB
:101B00004AAD5BAD6CAD782D892D9DAD78D22A3074
:101B100008F059C0205D8FEF481A580AAEADBFAD2E
:101B20002D93BFAFAEAFA9A0BAA0CBA0DCA0EDA013
:101B3000FEA00FA118A52DA939AD4AAD5BAD6CADC6
:101B4000782D892D9DAD5DD223962FAF23972496B6
:101B50003FAF249725964FAF259726965FAF2697E0
:101B6000FB01DC012DA939AD4AAD5BAD6CAD782D23
:101B7000892D9DADE8D220F020E24216510471F487
:101B80007F926F923CA53F934BA54F938DA49EA44B
:101B9000AFA8B8ACC12C82CE81E69DCF23963FADD5
:101BA00023973DAB24964FAD249749AF25965FAD63
:101BB00025975AAF26966FAD26976BAFECAF8F2E59
:101BC0009A2EBDAF93CF27967FAD2797270FA3CF30
:101BD0004B01A12CB12CD20170FE11C0ED90FD90F3
:101BE0000D911D912D017F926F92BCA5BF93EBA526
:101BF000EF93FEA5FF932DA52F93C12CE7CEED907B
:101C0000FD902D0166FCFF2400E010E0ECCF68940D
:101C100065F8D201ED90FD900D911D912D014301CC
:101C2000ABA4BCA4CDA4DEA42FA538A9A1016BA9A7
:101C30007CA989A99AA9ACD91C0146CE8F7D87348D
:101C400011F4689473F8F201E190F190019111910F
:101C50002F014301ABA4BCA4CDA4DEA42FA538A9B9
:101C6000A1016BA97CA989A99AA90E943105E4CF99
:101C7000F2E06F22772401E010E06114710429F58D
:101C800000E010E008C02FA538A96BA97CA980E26C
:101C9000E9A9FAA90995A101400F511F0F5F1F4F34
:101CA0002BA53CA50217130770F381E0232B21F528
:101CB00080E020E030E0220E331E0BA51CA50F5F54
:101CC0001F4F811102C002E010E061013FEFC31A13
:101CD000D30A420142E0840E911C2FA538A9A1012C
:101CE0006BA97CA9D2018C91E9A9FAA90995672869
:101CF00039F17801A60115C02BA53CA52150310969
:101D0000DACF5A01FFEFAF1ABF0A2FA538A96BA986
:101D10007CA980E2E9A9FAA90995FFEFEF1AFF0A69
:101D2000A5012BA53CA5E216F30658F3C901801BBB
:101D3000910B2017310710F480E090E0C80ED91EF7
:101D400024011601C1CDD201ED90FD902D01EDA52C
:101D5000FEA5CF01EF2B11F48FEF9FEF8E0D9F1D8E
:101D6000F7012081211519F08E179F07C9F48F0103
:101D70000E191F095301AA24F4E0BF22A114B104D3
:101D800031F02DA53EA52017310708F4890132E076
:101D9000632277246114710441F56801A10112C026
:101DA0003196DFCF4A016FEF861A960A2FA538A920
:101DB0006BA97CA980E2E9A9FAA90995FFEFCF1ADE
:101DC000DF0AA4012BA53CA5C216D30658F3C9010E
:101DD000801B910B2017310710F480E090E0280E53
:101DE000391E0F5F1F4F080F191FD7018D917D01FD
:101DF000811559F0A114B10481F02DA53EA5215003
:101E00003109EDA5FEA5EF2B31F4672809F45CCD6F
:101E10007801A10120C03EA72DA761013FEFC31AA1
:101E2000D30A2FA538A9A1016BA97CA9E9A9FAA910
:101E300009951601DACF6A01FFEFCF1ADF0A2FA545
:101E400038A96BA97CA980E2E9A9FAA90995FFEF55
:101E5000EF1AFF0AA6012BA53CA5E216F30658F3DC
:101E6000C901801B910B2017310710F480E090E02E
:101E7000280E391E29CDD201ED90FD902D0100E0F4
:101E800010E0B1E26B2A7F926F921F9284E08F93F1
:101E9000EEA5EF93FDA5FF9380E1882E912CA12C58
:101EA000B12CABCE689465F820E130E038AF2FABB1
:101EB000F9CB40E150E058AF4FABF4CB68E070E0B5
:101EC00078AF6FABEFCBA2E0B0E0B8AFAFABEACB8F
:101ED0000F931F93CF93DF930F92CDB7DEB7FE0121
:101EE0003896219131918F014FEF5FEFBE016F5F07
:101EF0007F4F80EF99E077DA0F90DF91CF911F91BC
:101F00000F910895109280001092820081E08093DA
:101F100081000895FC017383628380918400909115
:101F20008500918380830895FC0120918400309185
:101F3000850080819181281B390B81E0428153818A
:101F40004217530708F080E008958CE090E09093EA
:101F5000C5008093C40082E08093C00088E1809334
:101F6000C10086E08093C2000895CF93C82F8A30C5
:101F700011F48DE0FADF8091C00085FFFCCFC093A3
:101F8000C600CF910895F1CF97FB072E16F4009469
:101F900006D077FD08D0ECD007FC05D03EF4909534
:101FA00081959F4F0895709561957F4F0895A1E2A7
:101FB0001A2EAA1BBB1BFD010DC0AA1FBB1FEE1FC3
:101FC000FF1FA217B307E407F50720F0A21BB30B0E
:101FD000E40BF50B661F771F881F991F1A9469F78A
:101FE00060957095809590959B01AC01BD01CF01E6
:101FF0000895EE0FFF1F0590F491E02D0994689469
:1020000001C0E8948F929F92CF93DF9305D0DF9128
:10201000CF919F908F90089588249924F401E40132
:10202000B0E49F93AA279A158B049C04ED05FE0546
:10203000CF05D007A10798F4AD2FDC2FCF2FFE2FAF
:10204000E92D982C892E982F872F762F652F542FC6
:10205000432F322F2227B85031F7BF9127C01B2EB4
:10206000BF91BB27220F331F441F551F661F771FC9
:10207000881F991F881C991CEE1FFF1FCC1FDD1F96
:10208000AA1FBB1F8A149B04EC05FD05CE05DF05C6
:10209000A007B10748F08A189B08EC09FD09CE0992
:1020A000DF09A00BB10B21601A94E1F62EF4940124
:1020B000AF01BE01CD01000C08956095709580952B
:1020C000909530954095509521953F4F4F4F5F4FDC
:1020D0006F4F7F4F8F4F9F4F0895002E083090F025
:1020E000982F872F762F652F542F432F322F22279B
:1020F0000850F4CF220F331F441F551F661F771F50
:10210000881F991F0A95B2F7002D089597FD109426
:10211000002E083098F00850232F342F452F562FCB
:10212000672F782F892F912DF4CF15949795879548
:102130007795679557954795379527950A95AAF707
:102140001124002D08952A153B054C055D056E05EB
:102150007F058007910708950024A7FD00942A17A2
:10216000300540055005600570058005900508950F
:10217000AA1BBB1B51E107C0AA1FBB1FA617B707AD
:1021800010F0A61BB70B881F991F5A95A9F78095C9
:102190009095BC01CD0108955058BB27AA270ED0B9
:1021A00075C166D130F06BD120F031F49F3F11F44E
:1021B0001EF45BC10EF4E095E7FB51C1E92F77D126
:1021C00080F3BA17620773078407950718F071F454
:1021D0009EF58FC10EF4E0950B2EBA2FA02D0B01AA
:1021E000B90190010C01CA01A0011124FF27591B5C
:1021F00099F0593F50F4503E68F11A16F040A22F62
:10220000232F342F4427585FF3CF469537952795D2
:10221000A795F0405395C9F77EF41F16BA0B620BD1
:10222000730B840BBAF09150A1F0FF0FBB1F661F18
:10223000771F881FC2F70EC0BA0F621F731F841F5B
:1022400048F4879577956795B795F7959E3F08F081
:10225000B3CF9395880F08F09927EE0F9795879540
:102260000895D9D008F481E008950CD00FC107D1AA
:1022700040F0FED030F021F45F3F19F0F0C0511172
:1022800039C1F3C014D198F39923C9F35523B1F39D
:10229000951B550BBB27AA2762177307840738F0D5
:1022A0009F5F5F4F220F331F441FAA1FA9F333D034
:1022B0000E2E3AF0E0E830D091505040E695001CE8
:1022C000CAF729D0FE2F27D0660F771F881FBB1FA4
:1022D000261737074807AB07B0E809F0BB0B802D7E
:1022E000BF01FF2793585F4F2AF09E3F510568F0CA
:1022F000B6C000C15F3FECF3983EDCF3869577955E
:102300006795B795F7959F5FC9F7880F911D9695CB
:10231000879597F90895E1E0660F771F881FBB1F27
:10232000621773078407BA0720F0621B730B840BD4
:10233000BA0BEE1F88F7E095089504D06894B111A8
:10234000D9C00895BCD088F09F5790F0B92F992735
:10235000B751A0F0D1F0660F771F881F991F1AF0B0
:10236000BA95C9F712C0B13081F0C3D0B1E0089579
:10237000C0C0672F782F8827B85F39F0B93FCCF3FA
:10238000869577956795B395D9F73EF490958095A6
:10239000709561957F4F8F4F9F4F0895E89409C0C6
:1023A00097FB3EF490958095709561957F4F8F4F88
:1023B0009F4F9923A9F0F92F96E9BB279395F6959E
:1023C000879577956795B795F111F8CFFAF4BB0F1C
:1023D00011F460FF1BC06F5F7F4F8F4F9F4F16C080
:1023E000882311F096E911C0772321F09EE8872F0A
:1023F000762F05C0662371F096E8862F70E060E0C6
:102400002AF09A95660F771F881FDAF7880F96953E
:10241000879597F90895990F0008550FAA0BE0E8E2
:10242000FEEF16161706E807F907C0F01216130696
:10243000E407F50798F0621B730B840B950B39F4D6
:102440000A2661F0232B242B252B21F408950A263C
:1024500009F4A140A6958FEF811D811D089597F97C
:102460009F6780E870E060E008959FEF80EC08953A
:1024700000240A9416161706180609060895002463
:102480000A9412161306140605060895092E0394DD
:10249000000C11F4882352F0BB0F40F4BF2B11F451
:1024A00060FF04C06F5F7F4F8F4F9F4F089557FDB0
:1024B0009058440F551F59F05F3F71F04795880FB2
:1024C00097FB991F61F09F3F79F087950895121649
:1024D00013061406551FF2CF4695F1DF08C01616F5
:1024E00017061806991FF1CF8695710561050894A6
:1024F0000895E894BB2766277727CB0197F90895BD
:102500008ADF08F48FEF08950BD0C0CFB1DF28F039
:10251000B6DF18F0952309F0A2CFA7CF1124EACF98
:10252000C6DFA0F3959FD1F3950F50E0551F629F32
:10253000F001729FBB27F00DB11D639FAA27F00D1C
:10254000B11DAA1F649F6627B00DA11D661F829F43
:102550002227B00DA11D621F739FB00DA11D621F28
:10256000839FA00D611D221F749F3327A00D611D45
:10257000231F849F600D211D822F762F6A2F112427
:102580009F5750408AF0E1F088234AF0EE0FFF1F7A
:10259000BB1F661F771F881F91505040A9F79E3FB1
:1025A000510570F05CCFA6CF5F3FECF3983EDCF3B3
:1025B000869577956795B795F795E7959F5FC1F7EE
:1025C000FE2B880F911D9695879597F90895F8949D
:1025D000FFCF3A0B2A0A2A0A2A0A2A0A2A0A2A0AB0
:1025E0002A0A2A0A2A0A3A0B380E3A0B1E0E090E3C
:1025F0001E0E2A0A3A0B2A0A2A0A2A0A2A0A2A0A32
:102600003A0B3B0F2A0A2A0AA30E2A0A3A0B2A0A75
:042610002A0A3A0B4D
:102614005B4C4F475D3A20417474656D7074696E0C
:102624006720646973636F7665727920286D6173BE
:10263400746572290A005B4C4F475D3A2044697304
:10264400636F76657279206F66207375626E6F644E
:1026540065202564206661696C65640A005B4C4FE3
:10266400475D3A20436F6E6669677572696E6720CD
:102674007375626E6F64652025640A005B4C4F4776
:102684005D3A204952513A202564202825642025AA
:1026940064290A005B4C4F475D3A205573696E67A5
:1026A400205245535043594353203D2030782578D8
:1026B4000A005B4C4F475D3A20424F4F54210A00B9
:1026C4005B4C4F475D3A20446973636F766572696A
:1026D4006E67206275730A00666E692B00666E6908
:1026E400006E616E00666E692D000000803F000080
:1026F40020410000C84200007A4400401C460050BB
:10270400C347002474498096184B20BCBE4C286BE8
:022714006E4E07
:00000001FF
